:020000040000FA
:0800000000008A110A12E42835
:08000800F0000308F1000A08F2
:10001000F20072088A0071088300F00E700E090069
:10002000831203138030A2002220080083120313DE
:10003000C030A20022200800DA2003148F2083128F
:1000400003130800DA2003108F2008008312031323
:100050008501831603138510051185110E30831653
:1000600003139F00FF3083120313A000FF3083129D
:100070000313A100DF20A00B39283030A2000310A9
:100080006B20FF30A000FF30A100DF20A00B442830
:100090003030A20003106B20FF30A100DF201830A9
:1000A000A20003106B20FF30A100DF202030A2004F
:1000B00003106B20DA202830A20022200D30A2008D
:1000C00022200130A20022200630A200222080300F
:1000D000A20022200800031C8511031885150511B4
:1000E00083160313081088100811881100000000FF
:1000F000831203138514A21F8811A21B8815221FC7
:100100000811221B0815A21E8810A21A8814221E8C
:100110000810221A081400000000851008006B2047
:1001200083120313A20E6B2083120313A20E080086
:1001300083160313081488140815881583120313F3
:10014000031C851103188515051500000000851492
:100150000000000000000000881DA3138819A317E9
:10016000081D231308192317881CA3128818A31627
:10017000081C231208182316851000000000000038
:1001800000000000000000000000851400000000D6
:10019000881DA3118819A315081D231108192315FB
:1001A000881CA3108818A314081C231008182314F3
:1001B0008510080003109820A31BDA280800A10B63
:0401C000DF2808002C
:0401C40000340034CF
:0801C800000083120313A401DF
:1001D000831603131030850001308600053081003E
:1001E0008A110A122620831203130130A2008A11F9
:1001F0000A12222083120313A601F30183120313B0
:10020000823081007D30F4008312031326081B3CEA
:100210000319A60126088A110A12A32183120313C7
:10022000A2008A110A121C200F3073028A110A12CE
:1002300003191620F30AA60A8A110A121F298A1125
:100240000A127308013C03192E29831203138A1121
:100250000A12061C3D298A110A122E298A110A1235
:100260007308213C03196929831203138A110A12A6
:10027000051E5C298A110A12692983120313061CC0
:100280003D298A110A1292218A110A127A211A3002
:100290008A110A12A32183120313A2008A110A12DF
:1002A0001C20F30A8A110A127A217A21831203137D
:1002B000A6018A110A12FE2883120313051E5C2967
:1002C0008A110A12922183120313A6018A110A12BB
:1002D000FE288A110A120B1D1F290B11831203130A
:1002E00082308100F40B1F298A110A127A218A11A7
:1002F0000A12FE288A110A127308103C0319892970
:10030000F303831203131030A2008A110A12222071
:100310000800831203138F30A2008A110A122220D0
:10032000F30308000B1183120313643081000530BE
:10033000F4000B1D99290B11831203136430810003
:10034000F40B9929080083120313A40001308A00DA
:10035000AD30240703188A0A820041344234433402
:100360004434453446344734483449344A344B34B1
:100370004C344D344E344F34503451345234533461
:100380005434553456345734583459345A3420344C
:02400E00393740
:00000001FF
